{
  "contractName": "CrimeReport",
  "abi": [
    {
      "anonymous": false,
      "inputs": [
        {
          "indexed": true,
          "internalType": "uint256",
          "name": "reportId",
          "type": "uint256"
        },
        {
          "indexed": false,
          "internalType": "string",
          "name": "firNumber",
          "type": "string"
        }
      ],
      "name": "ReportFiled",
      "type": "event"
    },
    {
      "inputs": [
        {
          "internalType": "uint256",
          "name": "",
          "type": "uint256"
        }
      ],
      "name": "reports",
      "outputs": [
        {
          "internalType": "string",
          "name": "firNumber",
          "type": "string"
        },
        {
          "internalType": "string",
          "name": "crimePlace",
          "type": "string"
        },
        {
          "internalType": "string",
          "name": "description",
          "type": "string"
        }
      ],
      "stateMutability": "view",
      "type": "function",
      "constant": true
    },
    {
      "inputs": [
        {
          "internalType": "string",
          "name": "_firNumber",
          "type": "string"
        },
        {
          "internalType": "string",
          "name": "_crimePlace",
          "type": "string"
        },
        {
          "internalType": "string",
          "name": "_description",
          "type": "string"
        }
      ],
      "name": "fileReport",
      "outputs": [],
      "stateMutability": "nonpayable",
      "type": "function"
    },
    {
      "inputs": [
        {
          "internalType": "uint256",
          "name": "_reportId",
          "type": "uint256"
        }
      ],
      "name": "getReport",
      "outputs": [
        {
          "internalType": "string",
          "name": "",
          "type": "string"
        },
        {
          "internalType": "string",
          "name": "",
          "type": "string"
        },
        {
          "internalType": "string",
          "name": "",
          "type": "string"
        }
      ],
      "stateMutability": "view",
      "type": "function",
      "constant": true
    }
  ],
  "bytecode": "0x608060405234801561001057600080fd5b50610afb806100206000396000f3fe608060405234801561001057600080fd5b50600436106100415760003560e01c806313dfc0a2146100465780634e7f9b1914610062578063c942adf714610094575b600080fd5b610060600480360381019061005b919061071a565b6100c6565b005b61007c600480360381019061007791906107b1565b6101b3565b60405161008b93929190610875565b60405180910390f35b6100ae60048036038101906100a991906107b1565b610428565b6040516100bd93929190610875565b60405180910390f35b6000604051806060016040528085815260200184815260200183815250908060018154018082558091505060019003906000526020600020906003020160009091909190915060008201518160000190805190602001906101289291906105fa565b5060208201518160010190805190602001906101459291906105fa565b5060408201518160020190805190602001906101629291906105fa565b5050506001600080549050610177919061095e565b7f6e25c350c320969e24e961266fc8fbb703a36c7e161ee1c0ad0381a9e9fe8032846040516101a69190610853565b60405180910390a2505050565b606080606060008054905084106101ff576040517f08c379a00000000000000000000000000000000000000000000000000000000081526004016101f6906108c1565b60405180910390fd5b600080858154811061023a577f4e487b7100000000000000000000000000000000000000000000000000000000600052603260045260246000fd5b9060005260206000209060030201604051806060016040529081600082018054610263906109de565b80601f016020809104026020016040519081016040528092919081815260200182805461028f906109de565b80156102dc5780601f106102b1576101008083540402835291602001916102dc565b820191906000526020600020905b8154815290600101906020018083116102bf57829003601f168201915b505050505081526020016001820180546102f5906109de565b80601f0160208091040260200160405190810160405280929190818152602001828054610321906109de565b801561036e5780601f106103435761010080835404028352916020019161036e565b820191906000526020600020905b81548152906001019060200180831161035157829003601f168201915b50505050508152602001600282018054610387906109de565b80601f01602080910402602001604051908101604052809291908181526020018280546103b3906109de565b80156104005780601f106103d557610100808354040283529160200191610400565b820191906000526020600020905b8154815290600101906020018083116103e357829003601f168201915b5050505050815250509050806000015181602001518260400151935093509350509193909250565b6000818154811061043857600080fd5b906000526020600020906003020160009150905080600001805461045b906109de565b80601f0160208091040260200160405190810160405280929190818152602001828054610487906109de565b80156104d45780601f106104a9576101008083540402835291602001916104d4565b820191906000526020600020905b8154815290600101906020018083116104b757829003601f168201915b5050505050908060010180546104e9906109de565b80601f0160208091040260200160405190810160405280929190818152602001828054610515906109de565b80156105625780601f1061053757610100808354040283529160200191610562565b820191906000526020600020905b81548152906001019060200180831161054557829003601f168201915b505050505090806002018054610577906109de565b80601f01602080910402602001604051908101604052809291908181526020018280546105a3906109de565b80156105f05780601f106105c5576101008083540402835291602001916105f0565b820191906000526020600020905b8154815290600101906020018083116105d357829003601f168201915b5050505050905083565b828054610606906109de565b90600052602060002090601f016020900481019282610628576000855561066f565b82601f1061064157805160ff191683800117855561066f565b8280016001018555821561066f579182015b8281111561066e578251825591602001919060010190610653565b5b50905061067c9190610680565b5090565b5b80821115610699576000816000905550600101610681565b5090565b60006106b06106ab84610912565b6108e1565b9050828152602081018484840111156106c857600080fd5b6106d384828561099c565b509392505050565b600082601f8301126106ec57600080fd5b81356106fc84826020860161069d565b91505092915050565b60008135905061071481610aae565b92915050565b60008060006060848603121561072f57600080fd5b600084013567ffffffffffffffff81111561074957600080fd5b610755868287016106db565b935050602084013567ffffffffffffffff81111561077257600080fd5b61077e868287016106db565b925050604084013567ffffffffffffffff81111561079b57600080fd5b6107a7868287016106db565b9150509250925092565b6000602082840312156107c357600080fd5b60006107d184828501610705565b91505092915050565b60006107e582610942565b6107ef818561094d565b93506107ff8185602086016109ab565b61080881610a9d565b840191505092915050565b600061082060158361094d565b91507f5265706f727420646f6573206e6f7420657869737400000000000000000000006000830152602082019050919050565b6000602082019050818103600083015261086d81846107da565b905092915050565b6000606082019050818103600083015261088f81866107da565b905081810360208301526108a381856107da565b905081810360408301526108b781846107da565b9050949350505050565b600060208201905081810360008301526108da81610813565b9050919050565b6000604051905081810181811067ffffffffffffffff8211171561090857610907610a6e565b5b8060405250919050565b600067ffffffffffffffff82111561092d5761092c610a6e565b5b601f19601f8301169050602081019050919050565b600081519050919050565b600082825260208201905092915050565b600061096982610992565b915061097483610992565b92508282101561098757610986610a10565b5b828203905092915050565b6000819050919050565b82818337600083830152505050565b60005b838110156109c95780820151818401526020810190506109ae565b838111156109d8576000848401525b50505050565b600060028204905060018216806109f657607f821691505b60208210811415610a0a57610a09610a3f565b5b50919050565b7f4e487b7100000000000000000000000000000000000000000000000000000000600052601160045260246000fd5b7f4e487b7100000000000000000000000000000000000000000000000000000000600052602260045260246000fd5b7f4e487b7100000000000000000000000000000000000000000000000000000000600052604160045260246000fd5b6000601f19601f8301169050919050565b610ab781610992565b8114610ac257600080fd5b5056fea2646970667358221220d557e48153de3b14bc8c560b8cfd997ab61f3b1ba43a56768dcf1a5208d204ab64736f6c63430008000033",
  "immutableReferences": {},
  "source": "// SPDX-License-Identifier: MIT\r\npragma solidity ^0.8.0;\r\n\r\ncontract CrimeReport {\r\n    struct Report {\r\n        string firNumber;\r\n        string crimePlace;\r\n        string description;\r\n    }\r\n\r\n    Report[] public reports;\r\n\r\n    event ReportFiled(uint256 indexed reportId, string firNumber);\r\n\r\n    function fileReport(string memory _firNumber, string memory _crimePlace, string memory _description) public {\r\n        reports.push(Report(_firNumber, _crimePlace, _description));\r\n        emit ReportFiled(reports.length - 1, _firNumber);\r\n    }\r\n\r\n    function getReport(uint256 _reportId) public view returns (string memory, string memory, string memory) {\r\n        require(_reportId < reports.length, \"Report does not exist\");\r\n        Report memory report = reports[_reportId];\r\n        return (report.firNumber, report.crimePlace, report.description);\r\n    }\r\n}",
  "sourcePath": "C:\\Users\\SUPRIYO SAHA\\Desktop\\crime\\CrimeReport\\report_blockchain\\contracts\\CrimeReport.sol",
  "compiler": {
    "name": "solc",
    "version": "0.8.0+commit.c7dfd78e.Emscripten.clang"
  },
  "schemaVersion": "3.4.16",
  "updatedAt": "2024-07-27T20:38:24.037Z",
  "networkType": "ethereum",
  "devdoc": {
    "kind": "dev",
    "methods": {},
    "version": 1
  },
  "userdoc": {
    "kind": "user",
    "methods": {},
    "version": 1
  }
}