{
  "contractName": "CrimeReport",
  "abi": [
    {
      "inputs": [
        {
          "internalType": "string",
          "name": "_crime",
          "type": "string"
        },
        {
          "internalType": "string",
          "name": "_description",
          "type": "string"
        },
        {
          "internalType": "string",
          "name": "_pincode",
          "type": "string"
        },
        {
          "internalType": "string",
          "name": "_crimeId",
          "type": "string"
        }
      ],
      "stateMutability": "nonpayable",
      "type": "constructor"
    },
    {
      "inputs": [],
      "name": "crime",
      "outputs": [
        {
          "internalType": "string",
          "name": "",
          "type": "string"
        }
      ],
      "stateMutability": "view",
      "type": "function",
      "constant": true
    },
    {
      "inputs": [],
      "name": "crimeId",
      "outputs": [
        {
          "internalType": "string",
          "name": "",
          "type": "string"
        }
      ],
      "stateMutability": "view",
      "type": "function",
      "constant": true
    },
    {
      "inputs": [],
      "name": "description",
      "outputs": [
        {
          "internalType": "string",
          "name": "",
          "type": "string"
        }
      ],
      "stateMutability": "view",
      "type": "function",
      "constant": true
    },
    {
      "inputs": [],
      "name": "pincode",
      "outputs": [
        {
          "internalType": "string",
          "name": "",
          "type": "string"
        }
      ],
      "stateMutability": "view",
      "type": "function",
      "constant": true
    }
  ],
  "bytecode": "0x60806040523480156200001157600080fd5b50604051620008a6380380620008a68339818101604052810190620000379190620002f2565b83600090805190602001906200004f929190620000a5565b50826001908051906020019062000068929190620000a5565b50816002908051906020019062000081929190620000a5565b5080600390805190602001906200009a929190620000a5565b505050505062000444565b828054620000b3906200040f565b90600052602060002090601f016020900481019282620000d7576000855562000123565b82601f10620000f257805160ff191683800117855562000123565b8280016001018555821562000123579182015b828111156200012257825182559160200191906001019062000105565b5b50905062000132919062000136565b5090565b5b808211156200015157600081600090555060010162000137565b5090565b6000604051905090565b600080fd5b600080fd5b600080fd5b600080fd5b6000601f19601f8301169050919050565b7f4e487b7100000000000000000000000000000000000000000000000000000000600052604160045260246000fd5b620001be8262000173565b810181811067ffffffffffffffff82111715620001e057620001df62000184565b5b80604052505050565b6000620001f562000155565b9050620002038282620001b3565b919050565b600067ffffffffffffffff82111562000226576200022562000184565b5b620002318262000173565b9050602081019050919050565b60005b838110156200025e57808201518184015260208101905062000241565b838111156200026e576000848401525b50505050565b60006200028b620002858462000208565b620001e9565b905082815260208101848484011115620002aa57620002a96200016e565b5b620002b78482856200023e565b509392505050565b600082601f830112620002d757620002d662000169565b5b8151620002e984826020860162000274565b91505092915050565b600080600080608085870312156200030f576200030e6200015f565b5b600085015167ffffffffffffffff81111562000330576200032f62000164565b5b6200033e87828801620002bf565b945050602085015167ffffffffffffffff81111562000362576200036162000164565b5b6200037087828801620002bf565b935050604085015167ffffffffffffffff81111562000394576200039362000164565b5b620003a287828801620002bf565b925050606085015167ffffffffffffffff811115620003c657620003c562000164565b5b620003d487828801620002bf565b91505092959194509250565b7f4e487b7100000000000000000000000000000000000000000000000000000000600052602260045260246000fd5b600060028204905060018216806200042857607f821691505b6020821081036200043e576200043d620003e0565b5b50919050565b61045280620004546000396000f3fe608060405234801561001057600080fd5b506004361061004c5760003560e01c80631042681d146100515780636bceb2f21461006f5780637284e4161461008d578063f151b53c146100ab575b600080fd5b6100596100c9565b604051610066919061039a565b60405180910390f35b610077610157565b604051610084919061039a565b60405180910390f35b6100956101e5565b6040516100a2919061039a565b60405180910390f35b6100b3610273565b6040516100c0919061039a565b60405180910390f35b600380546100d6906103eb565b80601f0160208091040260200160405190810160405280929190818152602001828054610102906103eb565b801561014f5780601f106101245761010080835404028352916020019161014f565b820191906000526020600020905b81548152906001019060200180831161013257829003601f168201915b505050505081565b60028054610164906103eb565b80601f0160208091040260200160405190810160405280929190818152602001828054610190906103eb565b80156101dd5780601f106101b2576101008083540402835291602001916101dd565b820191906000526020600020905b8154815290600101906020018083116101c057829003601f168201915b505050505081565b600180546101f2906103eb565b80601f016020809104026020016040519081016040528092919081815260200182805461021e906103eb565b801561026b5780601f106102405761010080835404028352916020019161026b565b820191906000526020600020905b81548152906001019060200180831161024e57829003601f168201915b505050505081565b60008054610280906103eb565b80601f01602080910402602001604051908101604052809291908181526020018280546102ac906103eb565b80156102f95780601f106102ce576101008083540402835291602001916102f9565b820191906000526020600020905b8154815290600101906020018083116102dc57829003601f168201915b505050505081565b600081519050919050565b600082825260208201905092915050565b60005b8381101561033b578082015181840152602081019050610320565b8381111561034a576000848401525b50505050565b6000601f19601f8301169050919050565b600061036c82610301565b610376818561030c565b935061038681856020860161031d565b61038f81610350565b840191505092915050565b600060208201905081810360008301526103b48184610361565b905092915050565b7f4e487b7100000000000000000000000000000000000000000000000000000000600052602260045260246000fd5b6000600282049050600182168061040357607f821691505b602082108103610416576104156103bc565b5b5091905056fea2646970667358221220d4af6ceed463e91028d445c5e6fa95f43fc41933231971901c7a8e859a14a1ad64736f6c634300080d0033",
  "immutableReferences": {},
  "source": "// SPDX-License-Identifier: MIT\r\npragma solidity ^0.8.0;\r\n\r\ncontract CrimeReport {\r\n    string public crime;\r\n    string public description;\r\n    string public pincode;\r\n    string public crimeId;\r\n\r\n    constructor(string memory _crime, string memory _description, string memory _pincode, string memory _crimeId) {\r\n        crime = _crime;\r\n        description = _description;\r\n        pincode = _pincode;\r\n        crimeId = _crimeId;\r\n    }\r\n}\r\n",
  "sourcePath": "C:\\Users\\SUPRIYO SAHA\\Desktop\\CrimeReport\\CrimeReportBlockchain\\contracts\\CrimeReport.sol",
  "compiler": {
    "name": "solc",
    "version": "0.8.13+commit.abaa5c0e.Emscripten.clang"
  },
  "schemaVersion": "3.4.16",
  "updatedAt": "2024-06-29T22:07:08.312Z",
  "networkType": "ethereum",
  "devdoc": {
    "kind": "dev",
    "methods": {},
    "version": 1
  },
  "userdoc": {
    "kind": "user",
    "methods": {},
    "version": 1
  }
}